{"abi":[{"type":"constructor","inputs":[{"name":"_creator","type":"address","internalType":"address"},{"name":"_title","type":"string","internalType":"string"},{"name":"_description","type":"string","internalType":"string"}],"stateMutability":"nonpayable"},{"type":"function","name":"acceptVotes","inputs":[],"outputs":[{"name":"","type":"uint64","internalType":"uint64"}],"stateMutability":"view"},{"type":"function","name":"castAcceptVote","inputs":[],"outputs":[],"stateMutability":"nonpayable"},{"type":"function","name":"castRejectVote","inputs":[],"outputs":[],"stateMutability":"nonpayable"},{"type":"function","name":"closesAt","inputs":[],"outputs":[{"name":"","type":"uint256","internalType":"uint256"}],"stateMutability":"view"},{"type":"function","name":"createdAt","inputs":[],"outputs":[{"name":"","type":"uint256","internalType":"uint256"}],"stateMutability":"view"},{"type":"function","name":"creator","inputs":[],"outputs":[{"name":"","type":"address","internalType":"address"}],"stateMutability":"view"},{"type":"function","name":"description","inputs":[],"outputs":[{"name":"","type":"string","internalType":"string"}],"stateMutability":"view"},{"type":"function","name":"getData","inputs":[],"outputs":[{"name":"","type":"tuple","internalType":"struct Ballot.Data","components":[{"name":"id","type":"bytes32","internalType":"bytes32"},{"name":"state","type":"uint8","internalType":"enum Ballot.State"},{"name":"isCreator","type":"bool","internalType":"bool"},{"name":"createdAt","type":"uint256","internalType":"uint256"},{"name":"closesAt","type":"uint256","internalType":"uint256"},{"name":"title","type":"string","internalType":"string"},{"name":"description","type":"string","internalType":"string"},{"name":"canVote","type":"bool","internalType":"bool"},{"name":"results","type":"tuple","internalType":"struct Ballot.Results","components":[{"name":"accept","type":"uint64","internalType":"uint64"},{"name":"reject","type":"uint64","internalType":"uint64"},{"name":"total","type":"uint64","internalType":"uint64"}]}]}],"stateMutability":"view"},{"type":"function","name":"getState","inputs":[],"outputs":[{"name":"","type":"uint8","internalType":"enum Ballot.State"}],"stateMutability":"view"},{"type":"function","name":"id","inputs":[],"outputs":[{"name":"","type":"bytes32","internalType":"bytes32"}],"stateMutability":"view"},{"type":"function","name":"isCreator","inputs":[],"outputs":[{"name":"","type":"bool","internalType":"bool"}],"stateMutability":"view"},{"type":"function","name":"title","inputs":[],"outputs":[{"name":"","type":"string","internalType":"string"}],"stateMutability":"view"},{"type":"function","name":"totalVotes","inputs":[],"outputs":[{"name":"","type":"uint64","internalType":"uint64"}],"stateMutability":"view"},{"type":"event","name":"VoteCast","inputs":[{"name":"results","type":"tuple","indexed":false,"internalType":"struct Ballot.Results","components":[{"name":"accept","type":"uint64","internalType":"uint64"},{"name":"reject","type":"uint64","internalType":"uint64"},{"name":"total","type":"uint64","internalType":"uint64"}]}],"anonymous":false}],"bytecode":{"object":"0x6080604052426004554262093a80610017919061019b565b600555600680546001600160801b031916905534801561003657600080fd5b506040516110293803806110298339810160408190526100559161027b565b6032825111156100b85760405162461bcd60e51b815260206004820152602360248201527f5469746c65206d7573742062652035302063686172616374657273206f72206c60448201526265737360e81b60648201526084015b60405180910390fd5b60c88151111561011d5760405162461bcd60e51b815260206004820152602a60248201527f4465736372697074696f6e206d757374206265203230302063686172616374656044820152697273206f72206c65737360b01b60648201526084016100af565b6001610129838261038c565b506003610136828261038c565b50600280546001600160a01b0319166001600160a01b0385161790556004546040516001600160601b0319606086901b16602082015260348101919091526054016040516020818303038152906040528051906020012060008190555050505061044a565b808201808211156101bc57634e487b7160e01b600052601160045260246000fd5b92915050565b634e487b7160e01b600052604160045260246000fd5b600082601f8301126101e957600080fd5b81516001600160401b03811115610202576102026101c2565b604051601f8201601f19908116603f011681016001600160401b0381118282101715610230576102306101c2565b60405281815283820160200185101561024857600080fd5b60005b828110156102675760208186018101518383018201520161024b565b506000918101602001919091529392505050565b60008060006060848603121561029057600080fd5b83516001600160a01b03811681146102a757600080fd5b60208501519093506001600160401b038111156102c357600080fd5b6102cf868287016101d8565b604086015190935090506001600160401b038111156102ed57600080fd5b6102f9868287016101d8565b9150509250925092565b600181811c9082168061031757607f821691505b60208210810361033757634e487b7160e01b600052602260045260246000fd5b50919050565b601f82111561038757806000526020600020601f840160051c810160208510156103645750805b601f840160051c820191505b818110156103845760008155600101610370565b50505b505050565b81516001600160401b038111156103a5576103a56101c2565b6103b9816103b38454610303565b8461033d565b6020601f8211600181146103ed57600083156103d55750848201515b600019600385901b1c1916600184901b178455610384565b600084815260208120601f198516915b8281101561041d57878501518255602094850194600190920191016103fd565b508482101561043b5786840151600019600387901b60f8161c191681555b50505050600190811b01905550565b610bd0806104596000396000f3fe608060405234801561001057600080fd5b50600436106100cf5760003560e01c80637284e4161161008c578063af640d0f11610066578063af640d0f146101b1578063cdd9d78b146101ba578063cf09e0d0146101c2578063ee92d484146101cb57600080fd5b80637284e4161461018c57806394d34b921461019457806397d60a44146101a757600080fd5b806302d05d3f146100d45780630d15fd77146101045780631865c57d1461013657806339a3a99a1461014b5780633bc5de30146101625780634a79d50c14610177575b600080fd5b6002546100e7906001600160a01b031681565b6040516001600160a01b0390911681526020015b60405180910390f35b60065461011e90600160401b90046001600160401b031681565b6040516001600160401b0390911681526020016100fb565b61013e6101e3565b6040516100fb9190610933565b61015460055481565b6040519081526020016100fb565b61016a61020b565b6040516100fb919061098d565b61017f61047b565b6040516100fb9190610a59565b61017f610509565b60065461011e906001600160401b031681565b6101af610516565b005b61015460005481565b6101af6106f9565b61015460045481565b6101d3610817565b60405190151581526020016100fb565b60006004544210156101f55750600090565b6005544211156102055750600290565b50600190565b61026e60408051610120810182526000808252602080830182905282840182905260608084018390526080840183905260a0840181905260c0840181905260e0840183905284519081018552828152908101829052928301529061010082015290565b60006102786101e3565b9050600081600281111561028e5761028e6108fb565b036102b45760405162461bcd60e51b81526004016102ab90610a73565b60405180910390fd5b600060018260028111156102ca576102ca6108fb565b146102d65760006102eb565b3360009081526007602052604090205460ff16155b905060006102f7610817565b90506000610303610860565b9050604051806101200160405280600054815260200185600281111561032b5761032b6108fb565b81526020018315158152602001600454815260200160055481526020016001805461035590610aaa565b80601f016020809104026020016040519081016040528092919081815260200182805461038190610aaa565b80156103ce5780601f106103a3576101008083540402835291602001916103ce565b820191906000526020600020905b8154815290600101906020018083116103b157829003601f168201915b50505050508152602001600380546103e590610aaa565b80601f016020809104026020016040519081016040528092919081815260200182805461041190610aaa565b801561045e5780601f106104335761010080835404028352916020019161045e565b820191906000526020600020905b81548152906001019060200180831161044157829003601f168201915b505050918352505093151560208501526040909301525092915050565b6001805461048890610aaa565b80601f01602080910402602001604051908101604052809291908181526020018280546104b490610aaa565b80156105015780601f106104d657610100808354040283529160200191610501565b820191906000526020600020905b8154815290600101906020018083116104e457829003601f168201915b505050505081565b6003805461048890610aaa565b60006105206101e3565b90506000816002811115610536576105366108fb565b036105535760405162461bcd60e51b81526004016102ab90610a73565b6002816002811115610567576105676108fb565b036105b45760405162461bcd60e51b815260206004820152601d60248201527f42616c6c6f74206e6f206c6f6e6765722061636365707420766f74657300000060448201526064016102ab565b3360009081526007602052604090205460ff16156106145760405162461bcd60e51b815260206004820152601a60248201527f5573657220686173206361737420766f746520616c726561647900000000000060448201526064016102ab565b600680546001600160401b031690600061062d83610afa565b91906101000a8154816001600160401b0302191690836001600160401b03160217905550506006600881819054906101000a90046001600160401b03168092919061067790610afa565b82546001600160401b039182166101009390930a928302919092021990911617905550336000908152600760205260408120805460ff191660011790556106bc610860565b90507fd0248dbc0aab54a4652603f3d4d93abfce520d4d7da13ba1eb0b18671b1e06f9816040516106ed9190610b25565b60405180910390a15050565b60006107036101e3565b90506000816002811115610719576107196108fb565b036107365760405162461bcd60e51b81526004016102ab90610a73565b600281600281111561074a5761074a6108fb565b036107975760405162461bcd60e51b815260206004820152601d60248201527f42616c6c6f74206e6f206c6f6e6765722061636365707420766f74657300000060448201526064016102ab565b3360009081526007602052604090205460ff16156107f75760405162461bcd60e51b815260206004820152601a60248201527f5573657220686173206361737420766f746520616c726561647900000000000060448201526064016102ab565b60068054600160401b90046001600160401b031690600861067783610afa565b600080546004546040516bffffffffffffffffffffffff193360601b16602082015260348101919091526054016040516020818303038152906040528051906020012014905090565b60408051606081018252600080825260208201819052918101919091526006546001600160401b03808216600160401b9092041610156108a2576108a2610b65565b6006546000906108c5906001600160401b0380821691600160401b900416610b7b565b604080516060810182526006546001600160401b0380821683529384166020830152600160401b90049092169082015292915050565b634e487b7160e01b600052602160045260246000fd5b6003811061092f57634e487b7160e01b600052602160045260246000fd5b9052565b602081016109418284610911565b92915050565b6000815180845260005b8181101561096d57602081850181015186830182015201610951565b506000602082860101526020601f19601f83011685010191505092915050565b6020815281516020820152600060208301516109ac6040840182610911565b50604083015180151560608401525060608301516080830152608083015160a083015260a083015161016060c08401526109ea610180840182610947565b905060c0840151601f198483030160e0850152610a078282610947565b91505060e0840151610a1e61010085018215159052565b5061010084015180516001600160401b0390811661012086015260208201518116610140860152604082015116610160850152509392505050565b602081526000610a6c6020830184610947565b9392505050565b60208082526019908201527f42616c6c6f74206861736e277420737461727465642079657400000000000000604082015260600190565b600181811c90821680610abe57607f821691505b602082108103610ade57634e487b7160e01b600052602260045260246000fd5b50919050565b634e487b7160e01b600052601160045260246000fd5b60006001600160401b0382166001600160401b038103610b1c57610b1c610ae4565b60010192915050565b6060810161094182846001600160401b0381511682526001600160401b0360208201511660208301526001600160401b0360408201511660408301525050565b634e487b7160e01b600052600160045260246000fd5b6001600160401b03828116828216039081111561094157610941610ae456fea26469706673582212202d5aca470c9b3864afb504576a0170c12b785e8cf5b1decf77f41665132fc2a164736f6c634300081a0033","linkReferences":{}},"methodIdentifiers":{"acceptVotes()":"94d34b92","castAcceptVote()":"97d60a44","castRejectVote()":"cdd9d78b","closesAt()":"39a3a99a","createdAt()":"cf09e0d0","creator()":"02d05d3f","description()":"7284e416","getData()":"3bc5de30","getState()":"1865c57d","id()":"af640d0f","isCreator()":"ee92d484","title()":"4a79d50c","totalVotes()":"0d15fd77"},"id":26}