{"abi":[{"type":"function","name":"ballotIdAddressMap","inputs":[{"name":"","type":"bytes32","internalType":"bytes32"}],"outputs":[{"name":"","type":"address","internalType":"address"}],"stateMutability":"view"},{"type":"function","name":"ballotIdArrayLike","inputs":[{"name":"","type":"uint16","internalType":"uint16"}],"outputs":[{"name":"","type":"bytes32","internalType":"bytes32"}],"stateMutability":"view"},{"type":"function","name":"createBallot","inputs":[{"name":"_title","type":"string","internalType":"string"},{"name":"_description","type":"string","internalType":"string"}],"outputs":[{"name":"","type":"address","internalType":"address"}],"stateMutability":"nonpayable"},{"type":"function","name":"currentBallotIdArrayLikeLength","inputs":[],"outputs":[{"name":"","type":"uint16","internalType":"uint16"}],"stateMutability":"view"},{"type":"function","name":"getUserBallotsLength","inputs":[],"outputs":[{"name":"","type":"uint16","internalType":"uint16"}],"stateMutability":"view"},{"type":"function","name":"paginateBallots","inputs":[{"name":"_startsAt","type":"uint16","internalType":"uint16"}],"outputs":[{"name":"","type":"address[]","internalType":"address[]"}],"stateMutability":"view"},{"type":"function","name":"paginateUserBallots","inputs":[{"name":"_startsAt","type":"uint16","internalType":"uint16"}],"outputs":[{"name":"","type":"address[]","internalType":"address[]"}],"stateMutability":"view"},{"type":"function","name":"paginationSize","inputs":[],"outputs":[{"name":"","type":"uint16","internalType":"uint16"}],"stateMutability":"view"},{"type":"event","name":"NewBallot","inputs":[{"name":"id","type":"bytes32","indexed":false,"internalType":"bytes32"}],"anonymous":false},{"type":"error","name":"NoBallots","inputs":[]},{"type":"error","name":"NoUserBallots","inputs":[]}],"bytecode":{"object":"0x60806040526003805463ffffffff1916600517905534801561002057600080fd5b50611ab1806100306000396000f3fe60806040523480156200001157600080fd5b5060043610620000935760003560e01c8063c4c0875a1162000062578063c4c0875a146200012f578063d56dbfdb1462000146578063ee3c461c1462000178578063ef4b788f146200018e57600080fd5b8063147fc7c9146200009857806337139f6514620000c75780633d538ecf14620000f05780636fa4f10314620000ff575b600080fd5b620000af620000a9366004620007ca565b620001ba565b604051620000be9190620007f7565b60405180910390f35b600354620000dc9062010000900461ffff1681565b60405161ffff9091168152602001620000be565b600354620000dc9061ffff1681565b620001166200011036600462000886565b620003b3565b6040516001600160a01b039091168152602001620000be565b620000af62000140366004620007ca565b6200055d565b6200016962000157366004620007ca565b60016020526000908152604090205481565b604051908152602001620000be565b33600090815260208190526040902054620000dc565b620001166200019f366004620008f9565b6002602052600090815260409020546001600160a01b031681565b60035460609062010000900461ffff16600003620001eb5760405163cf053c2760e01b815260040160405180910390fd5b60035461ffff6201000090910481169083161115620002145760035462010000900461ffff1691505b60035460009061ffff6201000082048116916200023391168562000929565b61ffff1610156200025757600354620002519061ffff168462000929565b62000265565b60035462010000900461ffff165b905060006200027584836200094e565b61ffff1667ffffffffffffffff8111156200029457620002946200096c565b604051908082528060200260200182016040528015620002be578160200160208202803683370190505b5090506000845b8361ffff168161ffff161015620003a95760035462010000900461ffff16620002f082600162000929565b61ffff1611620003a0576003546000906001906200031a90849062010000900461ffff166200094e565b6200032691906200094e565b61ffff808216600090815260016020908152604080832054808452600290925290912054875193945090926001600160a01b039091169182918891881690811062000375576200037562000982565b6001600160a01b039092166020928302919091019091015284620003998162000998565b9550505050505b600101620002c5565b5090949350505050565b6000803386868686604051620003c990620007bc565b620003d9959493929190620009e5565b604051809103906000f080158015620003f6573d6000803e3d6000fd5b5090506000816001600160a01b031663af640d0f6040518163ffffffff1660e01b8152600401602060405180830381865afa1580156200043a573d6000803e3d6000fd5b505050506040513d601f19601f8201168201806040525081019062000460919062000a2d565b60038054620100009081900461ffff9081166000818152600160208181526040808420899055888452600280835281852080546001600160a01b0319166001600160a01b038e16179055338552848352908420805493840181558452922060108204018054600f90921683026101000a808602199092169184029190911790558454959650909487949390049091169190620004fc8362000998565b91906101000a81548161ffff021916908361ffff160217905550507f19b73cf7dc176e2394fdf408f9f62028ef8b8166966539d3bdbe46d7f2293747836040516200054991815260200190565b60405180910390a198975050505050505050565b33600090815260208181526040808320805482518185028101850190935280835260609493830182828015620005db57602002820191906000526020600020906000905b82829054906101000a900461ffff1661ffff1681526020019060020190602082600101049283019260010382029150808411620005a15790505b50508351939450505061ffff821660000390506200060c5760405163d043465b60e01b815260040160405180910390fd5b8061ffff168461ffff16111562000621578093505b60035460009061ffff808416916200063b91168762000929565b61ffff1610156200065f57600354620006599061ffff168662000929565b62000661565b815b905060006200067186836200094e565b61ffff1667ffffffffffffffff8111156200069057620006906200096c565b604051908082528060200260200182016040528015620006ba578160200160208202803683370190505b5090506000865b8361ffff168161ffff161015620007b05761ffff8516620006e482600162000929565b61ffff1611620007a75760006001620006fe83886200094e565b6200070a91906200094e565b90506000878261ffff168151811062000727576200072762000982565b60209081029190910181015161ffff808216600090815260018452604080822054808352600290955290205488519294506001600160a01b031691829189919089169081106200077b576200077b62000982565b6001600160a01b0390921660209283029190910190910152856200079f8162000998565b965050505050505b600101620006c1565b50909695505050505050565b6110348062000a4883390190565b600060208284031215620007dd57600080fd5b813561ffff81168114620007f057600080fd5b9392505050565b6020808252825182820181905260009190848201906040850190845b81811015620007b05783516001600160a01b03168352928401929184019160010162000813565b60008083601f8401126200084d57600080fd5b50813567ffffffffffffffff8111156200086657600080fd5b6020830191508360208285010111156200087f57600080fd5b9250929050565b600080600080604085870312156200089d57600080fd5b843567ffffffffffffffff80821115620008b657600080fd5b620008c4888389016200083a565b90965094506020870135915080821115620008de57600080fd5b50620008ed878288016200083a565b95989497509550505050565b6000602082840312156200090c57600080fd5b5035919050565b634e487b7160e01b600052601160045260246000fd5b61ffff81811683821601908082111562000947576200094762000913565b5092915050565b61ffff82811682821603908082111562000947576200094762000913565b634e487b7160e01b600052604160045260246000fd5b634e487b7160e01b600052603260045260246000fd5b600061ffff808316818103620009b257620009b262000913565b6001019392505050565b81835281816020850137506000828201602090810191909152601f909101601f19169091010190565b6001600160a01b038616815260606020820181905260009062000a0c9083018688620009bc565b828103604084015262000a21818587620009bc565b98975050505050505050565b60006020828403121562000a4057600080fd5b505191905056fe6080604052426004554262093a80620000199190620001aa565b600555600680546001600160801b03191690553480156200003957600080fd5b5060405162001034380380620010348339810160408190526200005c916200029a565b603282511115620000c05760405162461bcd60e51b815260206004820152602360248201527f5469746c65206d7573742062652035302063686172616374657273206f72206c60448201526265737360e81b60648201526084015b60405180910390fd5b60c881511115620001275760405162461bcd60e51b815260206004820152602a60248201527f4465736372697074696f6e206d757374206265203230302063686172616374656044820152697273206f72206c65737360b01b6064820152608401620000b7565b6001620001358382620003b5565b506003620001448282620003b5565b50600280546001600160a01b0319166001600160a01b0385161790556004546040516001600160601b0319606086901b16602082015260348101919091526054016040516020818303038152906040528051906020012060008190555050505062000481565b80820180821115620001cc57634e487b7160e01b600052601160045260246000fd5b92915050565b634e487b7160e01b600052604160045260246000fd5b600082601f830112620001fa57600080fd5b81516001600160401b0380821115620002175762000217620001d2565b604051601f8301601f19908116603f01168101908282118183101715620002425762000242620001d2565b81604052838152602092508660208588010111156200026057600080fd5b600091505b8382101562000284578582018301518183018401529082019062000265565b6000602085830101528094505050505092915050565b600080600060608486031215620002b057600080fd5b83516001600160a01b0381168114620002c857600080fd5b60208501519093506001600160401b0380821115620002e657600080fd5b620002f487838801620001e8565b935060408601519150808211156200030b57600080fd5b506200031a86828701620001e8565b9150509250925092565b600181811c908216806200033957607f821691505b6020821081036200035a57634e487b7160e01b600052602260045260246000fd5b50919050565b601f821115620003b0576000816000526020600020601f850160051c810160208610156200038b5750805b601f850160051c820191505b81811015620003ac5782815560010162000397565b5050505b505050565b81516001600160401b03811115620003d157620003d1620001d2565b620003e981620003e2845462000324565b8462000360565b602080601f831160018114620004215760008415620004085750858301515b600019600386901b1c1916600185901b178555620003ac565b600085815260208120601f198616915b82811015620004525788860151825594840194600190910190840162000431565b5085821015620004715787850151600019600388901b60f8161c191681555b5050505050600190811b01905550565b610ba380620004916000396000f3fe608060405234801561001057600080fd5b50600436106100cf5760003560e01c80637284e4161161008c578063af640d0f11610066578063af640d0f146101b1578063cdd9d78b146101ba578063cf09e0d0146101c2578063ee92d484146101cb57600080fd5b80637284e4161461018c57806394d34b921461019457806397d60a44146101a757600080fd5b806302d05d3f146100d45780630d15fd77146101045780631865c57d1461013657806339a3a99a1461014b5780633bc5de30146101625780634a79d50c14610177575b600080fd5b6002546100e7906001600160a01b031681565b6040516001600160a01b0390911681526020015b60405180910390f35b60065461011e90600160401b90046001600160401b031681565b6040516001600160401b0390911681526020016100fb565b61013e6101e3565b6040516100fb9190610923565b61015460055481565b6040519081526020016100fb565b61016a61020b565b6040516100fb919061097d565b61017f61046b565b6040516100fb9190610a39565b61017f6104f9565b60065461011e906001600160401b031681565b6101af610506565b005b61015460005481565b6101af6106e9565b61015460045481565b6101d3610807565b60405190151581526020016100fb565b60006004544210156101f55750600090565b6005544211156102055750600290565b50600190565b61026660408051610100810182526000808252602080830182905282840182905260608084018390526080840181905260a0840181905260c0840183905284519081018552828152908101829052928301529060e082015290565b60006102706101e3565b90506000816002811115610286576102866108eb565b036102ac5760405162461bcd60e51b81526004016102a390610a53565b60405180910390fd5b600060018260028111156102c2576102c26108eb565b146102ce5760006102e3565b3360009081526007602052604090205460ff16155b905060006102ef610807565b905060006102fb610850565b905060405180610100016040528085600281111561031b5761031b6108eb565b81526020018315158152602001600454815260200160055481526020016001805461034590610a8a565b80601f016020809104026020016040519081016040528092919081815260200182805461037190610a8a565b80156103be5780601f10610393576101008083540402835291602001916103be565b820191906000526020600020905b8154815290600101906020018083116103a157829003601f168201915b50505050508152602001600380546103d590610a8a565b80601f016020809104026020016040519081016040528092919081815260200182805461040190610a8a565b801561044e5780601f106104235761010080835404028352916020019161044e565b820191906000526020600020905b81548152906001019060200180831161043157829003601f168201915b505050918352505093151560208501526040909301525092915050565b6001805461047890610a8a565b80601f01602080910402602001604051908101604052809291908181526020018280546104a490610a8a565b80156104f15780601f106104c6576101008083540402835291602001916104f1565b820191906000526020600020905b8154815290600101906020018083116104d457829003601f168201915b505050505081565b6003805461047890610a8a565b60006105106101e3565b90506000816002811115610526576105266108eb565b036105435760405162461bcd60e51b81526004016102a390610a53565b6002816002811115610557576105576108eb565b036105a45760405162461bcd60e51b815260206004820152601d60248201527f42616c6c6f74206e6f206c6f6e6765722061636365707420766f74657300000060448201526064016102a3565b3360009081526007602052604090205460ff16156106045760405162461bcd60e51b815260206004820152601a60248201527f5573657220686173206361737420766f746520616c726561647900000000000060448201526064016102a3565b600680546001600160401b031690600061061d83610ada565b91906101000a8154816001600160401b0302191690836001600160401b03160217905550506006600881819054906101000a90046001600160401b03168092919061066790610ada565b82546001600160401b039182166101009390930a928302919092021990911617905550336000908152600760205260408120805460ff191660011790556106ac610850565b90507fd0248dbc0aab54a4652603f3d4d93abfce520d4d7da13ba1eb0b18671b1e06f9816040516106dd9190610b00565b60405180910390a15050565b60006106f36101e3565b90506000816002811115610709576107096108eb565b036107265760405162461bcd60e51b81526004016102a390610a53565b600281600281111561073a5761073a6108eb565b036107875760405162461bcd60e51b815260206004820152601d60248201527f42616c6c6f74206e6f206c6f6e6765722061636365707420766f74657300000060448201526064016102a3565b3360009081526007602052604090205460ff16156107e75760405162461bcd60e51b815260206004820152601a60248201527f5573657220686173206361737420766f746520616c726561647900000000000060448201526064016102a3565b60068054600160401b90046001600160401b031690600861066783610ada565b600080546004546040516bffffffffffffffffffffffff193360601b16602082015260348101919091526054016040516020818303038152906040528051906020012014905090565b60408051606081018252600080825260208201819052918101919091526006546001600160401b03808216600160401b90920416101561089257610892610b30565b6006546000906108b5906001600160401b0380821691600160401b900416610b46565b604080516060810182526006546001600160401b0380821683529384166020830152600160401b90049092169082015292915050565b634e487b7160e01b600052602160045260246000fd5b6003811061091f57634e487b7160e01b600052602160045260246000fd5b9052565b602081016109318284610901565b92915050565b6000815180845260005b8181101561095d57602081850181015186830182015201610941565b506000602082860101526020601f19601f83011685010191505092915050565b6020815261098f602082018351610901565b60208201511515604082015260408201516060820152606082015160808201526000608083015161014060a08401526109cc610160840182610937565b905060a0840151601f198483030160c08501526109e98282610937565b91505060c08401516109ff60e085018215159052565b5060e084015180516001600160401b0390811661010086015260208201518116610120860152604082015116610140850152509392505050565b602081526000610a4c6020830184610937565b9392505050565b60208082526019908201527f42616c6c6f74206861736e277420737461727465642079657400000000000000604082015260600190565b600181811c90821680610a9e57607f821691505b602082108103610abe57634e487b7160e01b600052602260045260246000fd5b50919050565b634e487b7160e01b600052601160045260246000fd5b60006001600160401b03808316818103610af657610af6610ac4565b6001019392505050565b60608101610931828480516001600160401b03908116835260208083015182169084015260409182015116910152565b634e487b7160e01b600052600160045260246000fd5b6001600160401b03828116828216039080821115610b6657610b66610ac4565b509291505056fea2646970667358221220e4157ae742a0ce7ff880d6526d6d5e77814ff4239d82eb4c1f67897f44f69a9d64736f6c63430008180033a264697066735822122000bb18fc3c86df81312f3f45a0ae5cf605bf24fdee4cbdf5e85a7ab801e7fe7b64736f6c63430008180033","linkReferences":{}},"methodIdentifiers":{"ballotIdAddressMap(bytes32)":"ef4b788f","ballotIdArrayLike(uint16)":"d56dbfdb","createBallot(string,string)":"6fa4f103","currentBallotIdArrayLikeLength()":"37139f65","getUserBallotsLength()":"ee3c461c","paginateBallots(uint16)":"147fc7c9","paginateUserBallots(uint16)":"c4c0875a","paginationSize()":"3d538ecf"},"id":26}