{"abi":[{"type":"constructor","inputs":[{"name":"_creator","type":"address","internalType":"address"},{"name":"_title","type":"string","internalType":"string"},{"name":"_description","type":"string","internalType":"string"}],"stateMutability":"nonpayable"},{"type":"function","name":"acceptVotes","inputs":[],"outputs":[{"name":"","type":"uint64","internalType":"uint64"}],"stateMutability":"view"},{"type":"function","name":"castAcceptVote","inputs":[],"outputs":[],"stateMutability":"nonpayable"},{"type":"function","name":"castRejectVote","inputs":[],"outputs":[],"stateMutability":"nonpayable"},{"type":"function","name":"closesAt","inputs":[],"outputs":[{"name":"","type":"uint256","internalType":"uint256"}],"stateMutability":"view"},{"type":"function","name":"createdAt","inputs":[],"outputs":[{"name":"","type":"uint256","internalType":"uint256"}],"stateMutability":"view"},{"type":"function","name":"creator","inputs":[],"outputs":[{"name":"","type":"address","internalType":"address"}],"stateMutability":"view"},{"type":"function","name":"description","inputs":[],"outputs":[{"name":"","type":"string","internalType":"string"}],"stateMutability":"view"},{"type":"function","name":"getData","inputs":[],"outputs":[{"name":"","type":"tuple","internalType":"struct Ballot.Data","components":[{"name":"id","type":"bytes32","internalType":"bytes32"},{"name":"state","type":"uint8","internalType":"enum Ballot.State"},{"name":"isCreator","type":"bool","internalType":"bool"},{"name":"createdAt","type":"uint256","internalType":"uint256"},{"name":"closesAt","type":"uint256","internalType":"uint256"},{"name":"title","type":"string","internalType":"string"},{"name":"description","type":"string","internalType":"string"},{"name":"canVote","type":"bool","internalType":"bool"},{"name":"results","type":"tuple","internalType":"struct Ballot.Results","components":[{"name":"accept","type":"uint64","internalType":"uint64"},{"name":"reject","type":"uint64","internalType":"uint64"},{"name":"total","type":"uint64","internalType":"uint64"}]}]}],"stateMutability":"view"},{"type":"function","name":"getState","inputs":[],"outputs":[{"name":"","type":"uint8","internalType":"enum Ballot.State"}],"stateMutability":"view"},{"type":"function","name":"id","inputs":[],"outputs":[{"name":"","type":"bytes32","internalType":"bytes32"}],"stateMutability":"view"},{"type":"function","name":"isCreator","inputs":[],"outputs":[{"name":"","type":"bool","internalType":"bool"}],"stateMutability":"view"},{"type":"function","name":"returnCaller","inputs":[],"outputs":[{"name":"","type":"address","internalType":"address"}],"stateMutability":"view"},{"type":"function","name":"title","inputs":[],"outputs":[{"name":"","type":"string","internalType":"string"}],"stateMutability":"view"},{"type":"function","name":"totalVotes","inputs":[],"outputs":[{"name":"","type":"uint64","internalType":"uint64"}],"stateMutability":"view"},{"type":"event","name":"VoteCast","inputs":[{"name":"results","type":"tuple","indexed":false,"internalType":"struct Ballot.Results","components":[{"name":"accept","type":"uint64","internalType":"uint64"},{"name":"reject","type":"uint64","internalType":"uint64"},{"name":"total","type":"uint64","internalType":"uint64"}]}],"anonymous":false}],"bytecode":{"object":"0x6080604052426004554262093a80620000199190620001aa565b600555600680546001600160801b03191690553480156200003957600080fd5b5060405162001074380380620010748339810160408190526200005c916200029a565b603282511115620000c05760405162461bcd60e51b815260206004820152602360248201527f5469746c65206d7573742062652035302063686172616374657273206f72206c60448201526265737360e81b60648201526084015b60405180910390fd5b60c881511115620001275760405162461bcd60e51b815260206004820152602a60248201527f4465736372697074696f6e206d757374206265203230302063686172616374656044820152697273206f72206c65737360b01b6064820152608401620000b7565b6001620001358382620003b5565b506003620001448282620003b5565b50600280546001600160a01b0319166001600160a01b0385161790556004546040516001600160601b0319606086901b16602082015260348101919091526054016040516020818303038152906040528051906020012060008190555050505062000481565b80820180821115620001cc57634e487b7160e01b600052601160045260246000fd5b92915050565b634e487b7160e01b600052604160045260246000fd5b600082601f830112620001fa57600080fd5b81516001600160401b0380821115620002175762000217620001d2565b604051601f8301601f19908116603f01168101908282118183101715620002425762000242620001d2565b81604052838152602092508660208588010111156200026057600080fd5b600091505b8382101562000284578582018301518183018401529082019062000265565b6000602085830101528094505050505092915050565b600080600060608486031215620002b057600080fd5b83516001600160a01b0381168114620002c857600080fd5b60208501519093506001600160401b0380821115620002e657600080fd5b620002f487838801620001e8565b935060408601519150808211156200030b57600080fd5b506200031a86828701620001e8565b9150509250925092565b600181811c908216806200033957607f821691505b6020821081036200035a57634e487b7160e01b600052602260045260246000fd5b50919050565b601f821115620003b0576000816000526020600020601f850160051c810160208610156200038b5750805b601f850160051c820191505b81811015620003ac5782815560010162000397565b5050505b505050565b81516001600160401b03811115620003d157620003d1620001d2565b620003e981620003e2845462000324565b8462000360565b602080601f831160018114620004215760008415620004085750858301515b600019600386901b1c1916600185901b178555620003ac565b600085815260208120601f198616915b82811015620004525788860151825594840194600190910190840162000431565b5085821015620004715787850151600019600388901b60f8161c191681555b5050505050600190811b01905550565b610be380620004916000396000f3fe608060405234801561001057600080fd5b50600436106100ea5760003560e01c80637284e4161161008c578063af640d0f11610066578063af640d0f146101d2578063cdd9d78b146101db578063cf09e0d0146101e3578063ee92d484146101ec57600080fd5b80637284e416146101ad57806394d34b92146101b557806397d60a44146101c857600080fd5b806339a3a99a116100c857806339a3a99a146101665780633bc5de301461017d5780634a79d50c146101925780636213bdf2146101a757600080fd5b806302d05d3f146100ef5780630d15fd771461011f5780631865c57d14610151575b600080fd5b600254610102906001600160a01b031681565b6040516001600160a01b0390911681526020015b60405180910390f35b60065461013990600160401b90046001600160401b031681565b6040516001600160401b039091168152602001610116565b610159610204565b6040516101169190610954565b61016f60055481565b604051908152602001610116565b61018561022c565b60405161011691906109ae565b61019a61049c565b6040516101169190610a79565b33610102565b61019a61052a565b600654610139906001600160401b031681565b6101d0610537565b005b61016f60005481565b6101d061071a565b61016f60045481565b6101f4610838565b6040519015158152602001610116565b60006004544210156102165750600090565b6005544211156102265750600290565b50600190565b61028f60408051610120810182526000808252602080830182905282840182905260608084018390526080840183905260a0840181905260c0840181905260e0840183905284519081018552828152908101829052928301529061010082015290565b6000610299610204565b905060008160028111156102af576102af61091c565b036102d55760405162461bcd60e51b81526004016102cc90610a93565b60405180910390fd5b600060018260028111156102eb576102eb61091c565b146102f757600061030c565b3360009081526007602052604090205460ff16155b90506000610318610838565b90506000610324610881565b9050604051806101200160405280600054815260200185600281111561034c5761034c61091c565b81526020018315158152602001600454815260200160055481526020016001805461037690610aca565b80601f01602080910402602001604051908101604052809291908181526020018280546103a290610aca565b80156103ef5780601f106103c4576101008083540402835291602001916103ef565b820191906000526020600020905b8154815290600101906020018083116103d257829003601f168201915b505050505081526020016003805461040690610aca565b80601f016020809104026020016040519081016040528092919081815260200182805461043290610aca565b801561047f5780601f106104545761010080835404028352916020019161047f565b820191906000526020600020905b81548152906001019060200180831161046257829003601f168201915b505050918352505093151560208501526040909301525092915050565b600180546104a990610aca565b80601f01602080910402602001604051908101604052809291908181526020018280546104d590610aca565b80156105225780601f106104f757610100808354040283529160200191610522565b820191906000526020600020905b81548152906001019060200180831161050557829003601f168201915b505050505081565b600380546104a990610aca565b6000610541610204565b905060008160028111156105575761055761091c565b036105745760405162461bcd60e51b81526004016102cc90610a93565b60028160028111156105885761058861091c565b036105d55760405162461bcd60e51b815260206004820152601d60248201527f42616c6c6f74206e6f206c6f6e6765722061636365707420766f74657300000060448201526064016102cc565b3360009081526007602052604090205460ff16156106355760405162461bcd60e51b815260206004820152601a60248201527f5573657220686173206361737420766f746520616c726561647900000000000060448201526064016102cc565b600680546001600160401b031690600061064e83610b1a565b91906101000a8154816001600160401b0302191690836001600160401b03160217905550506006600881819054906101000a90046001600160401b03168092919061069890610b1a565b82546001600160401b039182166101009390930a928302919092021990911617905550336000908152600760205260408120805460ff191660011790556106dd610881565b90507fd0248dbc0aab54a4652603f3d4d93abfce520d4d7da13ba1eb0b18671b1e06f98160405161070e9190610b40565b60405180910390a15050565b6000610724610204565b9050600081600281111561073a5761073a61091c565b036107575760405162461bcd60e51b81526004016102cc90610a93565b600281600281111561076b5761076b61091c565b036107b85760405162461bcd60e51b815260206004820152601d60248201527f42616c6c6f74206e6f206c6f6e6765722061636365707420766f74657300000060448201526064016102cc565b3360009081526007602052604090205460ff16156108185760405162461bcd60e51b815260206004820152601a60248201527f5573657220686173206361737420766f746520616c726561647900000000000060448201526064016102cc565b60068054600160401b90046001600160401b031690600861069883610b1a565b600080546004546040516bffffffffffffffffffffffff193360601b16602082015260348101919091526054016040516020818303038152906040528051906020012014905090565b60408051606081018252600080825260208201819052918101919091526006546001600160401b03808216600160401b9092041610156108c3576108c3610b70565b6006546000906108e6906001600160401b0380821691600160401b900416610b86565b604080516060810182526006546001600160401b0380821683529384166020830152600160401b90049092169082015292915050565b634e487b7160e01b600052602160045260246000fd5b6003811061095057634e487b7160e01b600052602160045260246000fd5b9052565b602081016109628284610932565b92915050565b6000815180845260005b8181101561098e57602081850181015186830182015201610972565b506000602082860101526020601f19601f83011685010191505092915050565b6020815281516020820152600060208301516109cd6040840182610932565b50604083015180151560608401525060608301516080830152608083015160a083015260a083015161016060c0840152610a0b610180840182610968565b905060c0840151601f198483030160e0850152610a288282610968565b91505060e0840151610100610a408186018315159052565b85015180516001600160401b03908116610120870152602082015181166101408701526040820151166101608601529050509392505050565b602081526000610a8c6020830184610968565b9392505050565b60208082526019908201527f42616c6c6f74206861736e277420737461727465642079657400000000000000604082015260600190565b600181811c90821680610ade57607f821691505b602082108103610afe57634e487b7160e01b600052602260045260246000fd5b50919050565b634e487b7160e01b600052601160045260246000fd5b60006001600160401b03808316818103610b3657610b36610b04565b6001019392505050565b60608101610962828480516001600160401b03908116835260208083015182169084015260409182015116910152565b634e487b7160e01b600052600160045260246000fd5b6001600160401b03828116828216039080821115610ba657610ba6610b04565b509291505056fea2646970667358221220877583f508006f7c87f00f0566027632e1b11c46b3ca19d26b75d3e0c2b88b4964736f6c63430008180033","linkReferences":{}},"methodIdentifiers":{"acceptVotes()":"94d34b92","castAcceptVote()":"97d60a44","castRejectVote()":"cdd9d78b","closesAt()":"39a3a99a","createdAt()":"cf09e0d0","creator()":"02d05d3f","description()":"7284e416","getData()":"3bc5de30","getState()":"1865c57d","id()":"af640d0f","isCreator()":"ee92d484","returnCaller()":"6213bdf2","title()":"4a79d50c","totalVotes()":"0d15fd77"},"id":25}