{"abi":[{"type":"function","name":"ballotIdAddressMap","inputs":[{"name":"","type":"bytes32","internalType":"bytes32"}],"outputs":[{"name":"","type":"address","internalType":"address"}],"stateMutability":"view"},{"type":"function","name":"ballotIdArrayLike","inputs":[{"name":"","type":"uint16","internalType":"uint16"}],"outputs":[{"name":"","type":"bytes32","internalType":"bytes32"}],"stateMutability":"view"},{"type":"function","name":"createBallot","inputs":[{"name":"_title","type":"string","internalType":"string"},{"name":"_description","type":"string","internalType":"string"}],"outputs":[{"name":"","type":"address","internalType":"address"}],"stateMutability":"nonpayable"},{"type":"function","name":"currentBallotIdArrayLikeLength","inputs":[],"outputs":[{"name":"","type":"uint16","internalType":"uint16"}],"stateMutability":"view"},{"type":"function","name":"getUserBallotsLength","inputs":[],"outputs":[{"name":"","type":"uint16","internalType":"uint16"}],"stateMutability":"view"},{"type":"function","name":"paginateBallots","inputs":[{"name":"_startsAt","type":"uint16","internalType":"uint16"}],"outputs":[{"name":"","type":"address[]","internalType":"address[]"}],"stateMutability":"view"},{"type":"function","name":"paginateUserBallots","inputs":[{"name":"_startsAt","type":"uint16","internalType":"uint16"}],"outputs":[{"name":"","type":"address[]","internalType":"address[]"}],"stateMutability":"view"},{"type":"function","name":"paginationSize","inputs":[],"outputs":[{"name":"","type":"uint16","internalType":"uint16"}],"stateMutability":"view"},{"type":"event","name":"NewBallot","inputs":[{"name":"id","type":"bytes32","indexed":false,"internalType":"bytes32"}],"anonymous":false},{"type":"error","name":"InvalidStartAt","inputs":[]},{"type":"error","name":"NoBallots","inputs":[]},{"type":"error","name":"NoUserBallots","inputs":[]}],"bytecode":{"object":"0x60806040526003805463ffffffff19166005179055348015601f57600080fd5b50611a468061002f6000396000f3fe608060405234801561001057600080fd5b50600436106100885760003560e01c8063c4c0875a1161005b578063c4c0875a14610116578063d56dbfdb14610129578063ee3c461c14610157578063ef4b788f1461016c57600080fd5b8063147fc7c91461008d57806337139f65146100b65780633d538ecf146100dd5780636fa4f103146100eb575b600080fd5b6100a061009b36600461077a565b610195565b6040516100ad91906107a5565b60405180910390f35b6003546100ca9062010000900461ffff1681565b60405161ffff90911681526020016100ad565b6003546100ca9061ffff1681565b6100fe6100f936600461083a565b61037b565b6040516001600160a01b0390911681526020016100ad565b6100a061012436600461077a565b61051a565b61014961013736600461077a565b60016020526000908152604090205481565b6040519081526020016100ad565b336000908152602081905260409020546100ca565b6100fe61017a3660046108ab565b6002602052600090815260409020546001600160a01b031681565b60035460609062010000900461ffff166000036101c55760405163cf053c2760e01b815260040160405180910390fd5b60035461ffff62010000909104811690831611156101f6576040516303358f9560e51b815260040160405180910390fd5b60035460009061ffff6201000082048116916102139116856108da565b61ffff1610156102335760035461022e9061ffff16846108da565b610241565b60035462010000900461ffff165b9050600061024f84836108fa565b61ffff1667ffffffffffffffff81111561026b5761026b610914565b604051908082528060200260200182016040528015610294578160200160208202803683370190505b5090506000845b8361ffff168161ffff1610156103715760035462010000900461ffff166102c38260016108da565b61ffff1611610369576003546000906001906102ea90849062010000900461ffff166108fa565b6102f491906108fa565b61ffff808216600090815260016020908152604080832054808452600290925290912054875193945090926001600160a01b03909116918291889188169081106103405761034061092a565b6001600160a01b03909216602092830291909101909101528461036281610940565b9550505050505b60010161029b565b5090949350505050565b600080338686868660405161038f9061076d565b61039d95949392919061098a565b604051809103906000f0801580156103b9573d6000803e3d6000fd5b5090506000816001600160a01b031663af640d0f6040518163ffffffff1660e01b8152600401602060405180830381865afa1580156103fc573d6000803e3d6000fd5b505050506040513d601f19601f8201168201806040525081019061042091906109ce565b60038054620100009081900461ffff9081166000818152600160208181526040808420899055888452600280835281852080546001600160a01b0319166001600160a01b038e16179055338552848352908420805493840181558452922060108204018054600f90921683026101000a8086021990921691840291909117905584549596509094879493900490911691906104ba83610940565b91906101000a81548161ffff021916908361ffff160217905550507f19b73cf7dc176e2394fdf408f9f62028ef8b8166966539d3bdbe46d7f22937478360405161050691815260200190565b60405180910390a198975050505050505050565b3360009081526020818152604080832080548251818502810185019093528083526060949383018282801561059657602002820191906000526020600020906000905b82829054906101000a900461ffff1661ffff168152602001906002019060208260010104928301926001038202915080841161055d5790505b50508351939450505061ffff821660000390506105c65760405163d043465b60e01b815260040160405180910390fd5b8061ffff168461ffff1611156105ef576040516303358f9560e51b815260040160405180910390fd5b60035460009061ffff808416916106079116876108da565b61ffff161015610627576003546106229061ffff16866108da565b610629565b815b9050600061063786836108fa565b61ffff1667ffffffffffffffff81111561065357610653610914565b60405190808252806020026020018201604052801561067c578160200160208202803683370190505b5090506000865b8361ffff168161ffff1610156107615761ffff85166106a38260016108da565b61ffff161161075957600060016106ba83886108fa565b6106c491906108fa565b90506000878261ffff16815181106106de576106de61092a565b60209081029190910181015161ffff808216600090815260018452604080822054808352600290955290205488519294506001600160a01b0316918291899190891690811061072f5761072f61092a565b6001600160a01b03909216602092830291909101909101528561075181610940565b965050505050505b600101610683565b50909695505050505050565b611029806109e883390190565b60006020828403121561078c57600080fd5b813561ffff8116811461079e57600080fd5b9392505050565b602080825282518282018190526000918401906040840190835b818110156107e65783516001600160a01b03168352602093840193909201916001016107bf565b509095945050505050565b60008083601f84011261080357600080fd5b50813567ffffffffffffffff81111561081b57600080fd5b60208301915083602082850101111561083357600080fd5b9250929050565b6000806000806040858703121561085057600080fd5b843567ffffffffffffffff81111561086757600080fd5b610873878288016107f1565b909550935050602085013567ffffffffffffffff81111561089357600080fd5b61089f878288016107f1565b95989497509550505050565b6000602082840312156108bd57600080fd5b5035919050565b634e487b7160e01b600052601160045260246000fd5b61ffff81811683821601908111156108f4576108f46108c4565b92915050565b61ffff82811682821603908111156108f4576108f46108c4565b634e487b7160e01b600052604160045260246000fd5b634e487b7160e01b600052603260045260246000fd5b600061ffff821661ffff8103610958576109586108c4565b60010192915050565b81835281816020850137506000828201602090810191909152601f909101601f19169091010190565b6001600160a01b03861681526060602082018190526000906109af9083018688610961565b82810360408401526109c2818587610961565b98975050505050505050565b6000602082840312156109e057600080fd5b505191905056fe6080604052426004554262093a80610017919061019b565b600555600680546001600160801b031916905534801561003657600080fd5b506040516110293803806110298339810160408190526100559161027b565b6032825111156100b85760405162461bcd60e51b815260206004820152602360248201527f5469746c65206d7573742062652035302063686172616374657273206f72206c60448201526265737360e81b60648201526084015b60405180910390fd5b60c88151111561011d5760405162461bcd60e51b815260206004820152602a60248201527f4465736372697074696f6e206d757374206265203230302063686172616374656044820152697273206f72206c65737360b01b60648201526084016100af565b6001610129838261038c565b506003610136828261038c565b50600280546001600160a01b0319166001600160a01b0385161790556004546040516001600160601b0319606086901b16602082015260348101919091526054016040516020818303038152906040528051906020012060008190555050505061044a565b808201808211156101bc57634e487b7160e01b600052601160045260246000fd5b92915050565b634e487b7160e01b600052604160045260246000fd5b600082601f8301126101e957600080fd5b81516001600160401b03811115610202576102026101c2565b604051601f8201601f19908116603f011681016001600160401b0381118282101715610230576102306101c2565b60405281815283820160200185101561024857600080fd5b60005b828110156102675760208186018101518383018201520161024b565b506000918101602001919091529392505050565b60008060006060848603121561029057600080fd5b83516001600160a01b03811681146102a757600080fd5b60208501519093506001600160401b038111156102c357600080fd5b6102cf868287016101d8565b604086015190935090506001600160401b038111156102ed57600080fd5b6102f9868287016101d8565b9150509250925092565b600181811c9082168061031757607f821691505b60208210810361033757634e487b7160e01b600052602260045260246000fd5b50919050565b601f82111561038757806000526020600020601f840160051c810160208510156103645750805b601f840160051c820191505b818110156103845760008155600101610370565b50505b505050565b81516001600160401b038111156103a5576103a56101c2565b6103b9816103b38454610303565b8461033d565b6020601f8211600181146103ed57600083156103d55750848201515b600019600385901b1c1916600184901b178455610384565b600084815260208120601f198516915b8281101561041d57878501518255602094850194600190920191016103fd565b508482101561043b5786840151600019600387901b60f8161c191681555b50505050600190811b01905550565b610bd0806104596000396000f3fe608060405234801561001057600080fd5b50600436106100cf5760003560e01c80637284e4161161008c578063af640d0f11610066578063af640d0f146101b1578063cdd9d78b146101ba578063cf09e0d0146101c2578063ee92d484146101cb57600080fd5b80637284e4161461018c57806394d34b921461019457806397d60a44146101a757600080fd5b806302d05d3f146100d45780630d15fd77146101045780631865c57d1461013657806339a3a99a1461014b5780633bc5de30146101625780634a79d50c14610177575b600080fd5b6002546100e7906001600160a01b031681565b6040516001600160a01b0390911681526020015b60405180910390f35b60065461011e90600160401b90046001600160401b031681565b6040516001600160401b0390911681526020016100fb565b61013e6101e3565b6040516100fb9190610933565b61015460055481565b6040519081526020016100fb565b61016a61020b565b6040516100fb919061098d565b61017f61047b565b6040516100fb9190610a59565b61017f610509565b60065461011e906001600160401b031681565b6101af610516565b005b61015460005481565b6101af6106f9565b61015460045481565b6101d3610817565b60405190151581526020016100fb565b60006004544210156101f55750600090565b6005544211156102055750600290565b50600190565b61026e60408051610120810182526000808252602080830182905282840182905260608084018390526080840183905260a0840181905260c0840181905260e0840183905284519081018552828152908101829052928301529061010082015290565b60006102786101e3565b9050600081600281111561028e5761028e6108fb565b036102b45760405162461bcd60e51b81526004016102ab90610a73565b60405180910390fd5b600060018260028111156102ca576102ca6108fb565b146102d65760006102eb565b3360009081526007602052604090205460ff16155b905060006102f7610817565b90506000610303610860565b9050604051806101200160405280600054815260200185600281111561032b5761032b6108fb565b81526020018315158152602001600454815260200160055481526020016001805461035590610aaa565b80601f016020809104026020016040519081016040528092919081815260200182805461038190610aaa565b80156103ce5780601f106103a3576101008083540402835291602001916103ce565b820191906000526020600020905b8154815290600101906020018083116103b157829003601f168201915b50505050508152602001600380546103e590610aaa565b80601f016020809104026020016040519081016040528092919081815260200182805461041190610aaa565b801561045e5780601f106104335761010080835404028352916020019161045e565b820191906000526020600020905b81548152906001019060200180831161044157829003601f168201915b505050918352505093151560208501526040909301525092915050565b6001805461048890610aaa565b80601f01602080910402602001604051908101604052809291908181526020018280546104b490610aaa565b80156105015780601f106104d657610100808354040283529160200191610501565b820191906000526020600020905b8154815290600101906020018083116104e457829003601f168201915b505050505081565b6003805461048890610aaa565b60006105206101e3565b90506000816002811115610536576105366108fb565b036105535760405162461bcd60e51b81526004016102ab90610a73565b6002816002811115610567576105676108fb565b036105b45760405162461bcd60e51b815260206004820152601d60248201527f42616c6c6f74206e6f206c6f6e6765722061636365707420766f74657300000060448201526064016102ab565b3360009081526007602052604090205460ff16156106145760405162461bcd60e51b815260206004820152601a60248201527f5573657220686173206361737420766f746520616c726561647900000000000060448201526064016102ab565b600680546001600160401b031690600061062d83610afa565b91906101000a8154816001600160401b0302191690836001600160401b03160217905550506006600881819054906101000a90046001600160401b03168092919061067790610afa565b82546001600160401b039182166101009390930a928302919092021990911617905550336000908152600760205260408120805460ff191660011790556106bc610860565b90507fd0248dbc0aab54a4652603f3d4d93abfce520d4d7da13ba1eb0b18671b1e06f9816040516106ed9190610b25565b60405180910390a15050565b60006107036101e3565b90506000816002811115610719576107196108fb565b036107365760405162461bcd60e51b81526004016102ab90610a73565b600281600281111561074a5761074a6108fb565b036107975760405162461bcd60e51b815260206004820152601d60248201527f42616c6c6f74206e6f206c6f6e6765722061636365707420766f74657300000060448201526064016102ab565b3360009081526007602052604090205460ff16156107f75760405162461bcd60e51b815260206004820152601a60248201527f5573657220686173206361737420766f746520616c726561647900000000000060448201526064016102ab565b60068054600160401b90046001600160401b031690600861067783610afa565b600080546004546040516bffffffffffffffffffffffff193360601b16602082015260348101919091526054016040516020818303038152906040528051906020012014905090565b60408051606081018252600080825260208201819052918101919091526006546001600160401b03808216600160401b9092041610156108a2576108a2610b65565b6006546000906108c5906001600160401b0380821691600160401b900416610b7b565b604080516060810182526006546001600160401b0380821683529384166020830152600160401b90049092169082015292915050565b634e487b7160e01b600052602160045260246000fd5b6003811061092f57634e487b7160e01b600052602160045260246000fd5b9052565b602081016109418284610911565b92915050565b6000815180845260005b8181101561096d57602081850181015186830182015201610951565b506000602082860101526020601f19601f83011685010191505092915050565b6020815281516020820152600060208301516109ac6040840182610911565b50604083015180151560608401525060608301516080830152608083015160a083015260a083015161016060c08401526109ea610180840182610947565b905060c0840151601f198483030160e0850152610a078282610947565b91505060e0840151610a1e61010085018215159052565b5061010084015180516001600160401b0390811661012086015260208201518116610140860152604082015116610160850152509392505050565b602081526000610a6c6020830184610947565b9392505050565b60208082526019908201527f42616c6c6f74206861736e277420737461727465642079657400000000000000604082015260600190565b600181811c90821680610abe57607f821691505b602082108103610ade57634e487b7160e01b600052602260045260246000fd5b50919050565b634e487b7160e01b600052601160045260246000fd5b60006001600160401b0382166001600160401b038103610b1c57610b1c610ae4565b60010192915050565b6060810161094182846001600160401b0381511682526001600160401b0360208201511660208301526001600160401b0360408201511660408301525050565b634e487b7160e01b600052600160045260246000fd5b6001600160401b03828116828216039081111561094157610941610ae456fea26469706673582212202d5aca470c9b3864afb504576a0170c12b785e8cf5b1decf77f41665132fc2a164736f6c634300081a0033a2646970667358221220e6ccca3dee7e17ef47545c50cbfd2ed47bd0d040567170da03ec7b3de15b07f664736f6c634300081a0033","linkReferences":{}},"methodIdentifiers":{"ballotIdAddressMap(bytes32)":"ef4b788f","ballotIdArrayLike(uint16)":"d56dbfdb","createBallot(string,string)":"6fa4f103","currentBallotIdArrayLikeLength()":"37139f65","getUserBallotsLength()":"ee3c461c","paginateBallots(uint16)":"147fc7c9","paginateUserBallots(uint16)":"c4c0875a","paginationSize()":"3d538ecf"},"id":27}